{
  "contractName": "MedicineD_C",
  "abi": [
    {
      "inputs": [
        {
          "internalType": "address",
          "name": "_address",
          "type": "address"
        },
        {
          "internalType": "address",
          "name": "Sender",
          "type": "address"
        },
        {
          "internalType": "address",
          "name": "Transporter",
          "type": "address"
        },
        {
          "internalType": "address",
          "name": "Receiver",
          "type": "address"
        }
      ],
      "stateMutability": "nonpayable",
      "type": "constructor"
    },
    {
      "inputs": [
        {
          "internalType": "address",
          "name": "_address",
          "type": "address"
        },
        {
          "internalType": "address",
          "name": "transporterAddr",
          "type": "address"
        }
      ],
      "name": "pickDC",
      "outputs": [],
      "stateMutability": "nonpayable",
      "type": "function"
    },
    {
      "inputs": [
        {
          "internalType": "address",
          "name": "_address",
          "type": "address"
        },
        {
          "internalType": "address",
          "name": "Receiver",
          "type": "address"
        }
      ],
      "name": "receiveDC",
      "outputs": [],
      "stateMutability": "nonpayable",
      "type": "function"
    },
    {
      "inputs": [],
      "name": "get_addressStatus",
      "outputs": [
        {
          "internalType": "uint256",
          "name": "",
          "type": "uint256"
        }
      ],
      "stateMutability": "view",
      "type": "function"
    }
  ],
  "bytecode": "0x608060405234801561001057600080fd5b506040516103bc3803806103bc8339818101604052608081101561003357600080fd5b50805160208201516040830151606090930151600080546001600160a01b03199081166001600160a01b03948516908117835560018054831696861696909617909555600280548216909517909455600380548516958416959095179094556004805490931691161760ff60a01b191690556103079081906100b590396000f3fe608060405234801561001057600080fd5b50600436106100415760003560e01c806353157b1a14610046578063c0114d0614610076578063f7addc3e14610090575b600080fd5b6100746004803603604081101561005c57600080fd5b506001600160a01b03813581169160200135166100be565b005b61007e610190565b60408051918252519081900360200190f35b610074600480360360408110156100a657600080fd5b506001600160a01b03813581169160200135166101b0565b6003546001600160a01b0382811691161461010a5760405162461bcd60e51b815260040180806020018281038252603381526020018061026f6033913960400191505060405180910390fd5b6004805460ff60a01b1916600160a01b17808255600254604080516305e3aeb160e31b81526001600160a01b039384169481019490945290821660248401525190841691632f1d758891604480830192600092919082900301818387803b15801561017457600080fd5b505af1158015610188573d6000803e3d6000fd5b505050505050565b600454600090600160a01b900460ff1660028111156101ab57fe5b905090565b6004546001600160a01b038281169116146101fc5760405162461bcd60e51b81526004018080602001828103825260308152602001806102a26030913960400191505060405180910390fd5b600480546002919060ff60a01b1916600160a01b830217905550816001600160a01b031663c8f5f189826040518263ffffffff1660e01b815260040180826001600160a01b03166001600160a01b03168152602001915050600060405180830381600087803b15801561017457600080fdfe4f6e6c79204173736f636961746564207472616e73706f727465722063616e2063616c6c20746869732066756e6374696f6e2e4f6e6c79204173736f6369617465642072656365697665722063616e2063616c6c20746869732066756e6374696f6e2ea26469706673582212205998965c730db601e540e5be16a278ffc26dd0851b28b2fa02c651d08ff9218564736f6c63430006060033",
  "immutableReferences": {},
  "source": "// SPDX-License-Identifier:MIT\npragma solidity >=0.4.22 <0.9.0;\n\nimport './Medicine.sol';\n\ncontract MedicineD_C {\n\n    address Owner;\n\n    enum packageStatus { atcreator, picked, delivered }\n\n    address medAddr;\n    address sender;\n    address transporter;\n    address receiver;\n    packageStatus status;\n\n    constructor(\n        address _address,\n        address Sender,\n        address Transporter,\n        address Receiver\n    ) public {\n        Owner = Sender;\n        medAddr = _address;\n        sender = Sender;\n        transporter = Transporter;\n        receiver = Receiver;\n        status = packageStatus(0);\n    }\n\n    function pickDC(\n        address _address,\n        address transporterAddr\n    ) public {\n        require(\n            transporter == transporterAddr,\n            \"Only Associated transporter can call this function.\"\n        );\n        status = packageStatus(1);\n\n        Medicine(_address).sendDtoC(\n            receiver,\n            sender\n        );\n    }\n\n\n    function receiveDC(\n        address _address,\n        address Receiver\n    ) public {\n        require(\n            Receiver == receiver,\n            \"Only Associated receiver can call this function.\"\n        );\n        status = packageStatus(2);\n        Medicine(_address).receivedDtoC(\n            Receiver\n        );\n    }\n\n    function get_addressStatus() public view returns(\n        uint\n    ) {\n        return uint(status);\n    }\n\n}",
  "sourcePath": "D:\\PharmaSafe - Copy\\blockchain\\testing\\MedicineD_C.sol",
  "compiler": {
    "name": "solc",
    "version": "0.6.6+commit.6c089d02.Emscripten.clang"
  },
  "schemaVersion": "3.4.11",
  "updatedAt": "2023-01-21T14:21:04.607Z",
  "devdoc": {
    "methods": {}
  },
  "userdoc": {
    "methods": {}
  }
}